:020000040000FA
:10000000B02B00206D02000081020000830200007E
:100010008502000087020000890200000000000045
:100020000000000000000000000000008B02000043
:100030008D020000000000008F020000910200000D
:10004000930200009302000093020000930200005C
:10005000930200009302000093020000930200004C
:10006000930200009302000093020000930200003C
:10007000930200009302000093020000930200002C
:10008000930200009302000093020000930200001C
:10009000930200009302000093020000930200000C
:1000A00093020000930200009302000093020000FC
:1000B00093020000930200009302000093020000EC
:1000C00093020000930200009302000093020000DC
:1000D00093020000930200009302000093020000CC
:1000E00093020000930200009302000093020000BC
:1000F00093020000930200009302000093020000AC
:10010000930200009302000093020000930200009B
:10011000930200009302000093020000930200008B
:10012000930200009302000093020000930200007B
:10013000930200009302000093020000930200006B
:1001400000000000000000000000000000000000AF
:10015000930200009302000093020000930200004B
:10016000000000000000000000000000000000008F
:10017000000000000000000000000000000000007F
:10018000000000000000000000000000000000006F
:10019000000000000000000000000000000000005F
:1001A000000000000000000000000000000000004F
:1001B00093020000930200009302000093020000EB
:1001C00093020000930200009302000093020000DB
:1001D00093020000930200009302000093020000CB
:1001E00093020000930200009302000093020000BB
:1001F00093020000930200009302000093020000AB
:10020000930200009302000093020000000000002F
:10021000930200009302000093020000930200008A
:10022000930200009302000093020000930200007A
:10023000930200009302000093020000930200006A
:10024000930200009302000093020000930200005A
:10025000930200009302000093020000930200004A
:100260009302000093020000930200004EF68850B3
:10027000CEF20000016841F47001016000F00AB89C
:10028000FEE7FEE7FEE7FEE7FEE7FEE7FEE7FEE746
:10029000FEE7FEE7DFF80CD002F01EFC0048004746
:1002A000A9270000B02B0020002105E0002200E07B
:1002B000521C052AFCDB491C8142F7DB70470021F8
:1002C00006E0002200E0521CB2F57A6FFBDB491C0D
:1002D0008142F6DB7047F0EE400AB7EE001AB0EE4E
:1002E000410A002806DA4042B7EE001AC1EE201A91
:1002F000F0EE610A1E2118E001228A40024203D07A
:1003000020EE201AB0EE410A20EE001AB0EE410AAB
:100310009FEDFE1AB4EEC10AF1EE10FA04DD9FED76
:10032000FB1AB0EE410A02E0491E0029E4DC00BFDE
:1003300010F0010F03D020EE201AB0EE410A7047F2
:10034000F349096841F004014FF04022C2F8FC1360
:100350001146D1F8FC1341F00801C2F8FC13114614
:10036000D1F8FC1321F01001E94A11604FF00001AF
:10037000E84A1180E84A1180E84A1160E84A1160B1
:10038000E84A1160E44A1180B3EE040AE64981EDBF
:10039000000AB7EE000AE54981ED000A4FF00000BF
:1003A00031E02D21C0EBC002E14B03F82210012106
:1003B000C0EBC00203EB82025180C0EBC00203EB32
:1003C000820291800021C0EBC00203EB8202D18047
:1003D0000121C0EBC00203EB82021181C0EBC0021D
:1003E00003EB82025181C0EBC00203EB82029181D8
:1003F0002B21D04A11549FEDD00AD04901EB800146
:1004000081ED000A401C0A28CBDB70470021C04A5E
:10041000126842F008024FF04023C3F8FC2300BFEB
:1004200029E010F0800F08D0B94A126842F010029B
:100430004FF04023C3F8FC2307E0B54A126822F0CE
:1004400010024FF04023C3F8FC23B14A126822F097
:1004500008024FF04023C3F8FC231A46D2F8FC23CD
:1004600042F00802C3F8FC234FEA40624FEA1260F0
:1004700001F10102D1B20829D3DB7047002100202D
:1004800000BF17E0A24A126842F008024FF0402372
:10049000C3F8FC231A46D2F8FC2322F00802C3F862
:1004A000FC239B4A126812F0200F00D0401C400031
:1004B0004A1CD1B20C29E5DB704700B594480068AE
:1004C00020F004004FF04021C1F8FC034FF09000F1
:1004D000FFF79CFF4FF04020D0F8FC0340F00800ED
:1004E0004FF04021C1F8FC030846D0F8FC0320F08F
:1004F0000800C1F8FC030120FFF7D6FEFFF7BEFF9E
:1005000087490860D020FFF781FF4FF04020D0F8E6
:10051000FC0340F008004FF04021C1F8FC030846FE
:10052000D0F8FC0320F00800C1F8FC030120FFF71D
:10053000BBFEFFF7A3FF794908604FF04020D0F8D9
:10054000FC0340F004004FF04021C1F8FC0300BD63
:1005500000B57B48006840F03F007A49C1F80801C7
:100560004FF00200FFF7A0FE002077490860091D48
:1005700008601C206649091D086000206449243178
:1005800008607C2070490C39086000206F490860C1
:10059000091D08603F206E49086000206C49203129
:1005A00008603F2069490C3908606A48006820F0FB
:1005B000F00068490860081D006880B2091D0860E5
:1005C0006548006840F0F0006349086062482030E8
:1005D000006820F0F0006049203108605D480C3868
:1005E000006840F0F0005B490C39086000205B496E
:1005F0000860091D08604F205949086000205849CB
:10060000203108604F2055490C39086000205549B9
:100610000860091D08603F205349086000205249C6
:10062000203108603F204F490C39086000BD012986
:1006300007D14E4A126842F008024D4BC3F8FC2322
:1006400007E031B9494A126822F00802484BC3F862
:10065000FC2300F03F02474B1A604FF03F0202EAD2
:10066000A012454BC3F8FC234FF0F00202EA20220F
:10067000424BC3F8FC233E4AD2F8FC2322F004028A
:100680003B4BC3F8FC231A46D2F8FC2342F0040289
:10069000364B1A607047F0B504460D4616461F46A5
:1006A0003248006820F001003149C1F8FC03B6F57A
:1006B000A07F02DB40F23F1602E0002E00DA0026A7
:1006C000EF2F01DDEF2702E0002F00DA0027002CDA
:1006D00001DA002404E0B4F5A07F01DB40F23F140E
:1006E000002D01DA002502E0EF2D00DDEF25B442F8
:1006F00005DDA01904B2A01B06B2A01B04B2BD42C6
:1007000040DDE81905B2E81B07B239E00060EA46AF
:10071000FC43004090250020A025002098250020C3
:10072000942500209C250020A4250020A825002039
:10073000AC250020C42600200000000084270020F3
:1007400008E10F4000E00F402845004028550040D8
:1007500000540040286500400064004028750040B7
:10076000007400402845024000440240FC730040F1
:1007700000700040FC530040004002400060004018
:10078000E81B05B200212A20FFF751FF0121C4F325
:100790000720FFF74CFFE0B20121FFF748FF0121DE
:1007A000C6F30720FFF743FFF0B20121FFF73FFF39
:1007B00000212B20FFF73BFF0121C5F30720FFF7A6
:1007C00036FFE8B20121FFF732FF0121C7F307200E
:1007D000FFF72DFFF8B20121FFF729FF00212C20A0
:1007E000FFF725FFFE48006840F00100FD49C1F811
:1007F000FC03F0BD00B5FA48006840F00200F9497A
:10080000C1F8FC030846D0F8FC0340F00400C1F82E
:10081000FC030846D0F8FC0340F04000F0490860B3
:100820004FF00100FFF74BFDEE48D0F8FC0320F03D
:100830004000EB4908604FF01E00FFF740FDE9481B
:10084000D0F8FC0340F04000E54908604FF4967092
:10085000FFF735FDE348D0F8FC0320F00100E14943
:10086000C1F8FC0300211120FFF7E1FE7820FFF71B
:1008700026FD0021CF20FFF7DAFE01210020FFF73F
:10088000D6FE01218320FFF7D2FE01213020FFF7A1
:10089000CEFE0520FFF708FD0021ED20FFF7C7FE83
:1008A00001216420FFF7C3FE01210320FFF7BFFEF3
:1008B00001211220FFF7BBFE01218120FFF7B7FEC7
:1008C0000520FFF7F1FC0021E820FFF7B0FE012131
:1008D0008520FFF7ACFE01210020FFF7A8FE0121D3
:1008E0007820FFF7A4FE0520FFF7DEFC0021CB20D7
:1008F000FFF79DFE01213920FFF799FE01212C20F1
:10090000FFF795FE01210020FFF791FE0121342021
:10091000FFF78DFE01210220FFF789FE0520FFF77A
:10092000C3FC0021F720FFF782FE01212020FFF702
:100930007EFE0520FFF7B8FC0021EA20FFF777FED6
:1009400001210020FFF773FE01210020FFF76FFE59
:100950000520FFF7A9FC0021C020FFF768FE012158
:100960001920FFF764FE0520FFF79EFC0021C1203F
:10097000FFF75DFE01211120FFF759FE0520FFF76B
:1009800093FC0021C520FFF752FE01213C20FFF718
:100990004EFE01213F20FFF74AFE0520FFF784FCB1
:1009A0000021C720FFF743FE01219020FFF73FFE03
:1009B0000520FFF779FC00213620FFF738FE0121E2
:1009C0002820FFF734FE0520FFF76EFC00213A20B7
:1009D000FFF72DFE01215520FFF729FE0520FFF727
:1009E00063FC0021B120FFF722FE01210020FFF768
:1009F0001EFE01211720FFF71AFE0520FFF754FC09
:100A00000021B620FFF713FE01210A20FFF70FFE99
:100A10000121A220FFF70BFE0520FFF745FC002176
:100A2000F620FFF704FE01210846FFF700FE012132
:100A30003020FFF7FCFD0520FFF736FC0021F220F7
:100A4000FFF7F5FD01210020FFF7F1FD0520FFF77D
:100A50002BFC00212620FFF7EAFD01210846FFF7C5
:100A6000E6FD0520FFF720FC0021E020FFF7DFFD79
:100A700001210F20FFF7DBFD01212620FFF7D7FD25
:100A800001212220FFF7D3FD01210A20FFF7CFFD2E
:100A900001211020FFF7CBFD01210A20FFF7C7FD40
:100AA00001214C20FFF7C3FD0121CA20FFF7BFFD44
:100AB00001213620FFF7BBFD01210020FFF7B7FD24
:100AC00001211520FFF7B3FD01210020FFF7AFFD45
:100AD00001211020FFF7ABFD01211020FFF7A7FD3A
:100AE00001210020FFF7A3FD0520FFF7DDFB00211A
:100AF000E120FFF79CFD01210020FFF798FD012177
:100B00001920FFF794FD01211B20FFF790FD012123
:100B10000520FFF78CFD01210F20FFF788FD012143
:100B20000520FFF784FD01213320FFF780FD01211F
:100B30003520FFF77CFD01214920FFF778FD0121D9
:100B40000F20FFF774FD01211F20FFF770FD012129
:100B50000F20FFF76CFD01213F20FFF768FD012109
:100B60003F20FFF764FD01210F20FFF760FD052006
:100B7000FFF79AFB00211120FFF759FD0520FFF731
:100B800093FB7820FFF79BFB00212920FFF74FFD07
:100B90001448D0F8FC0340F001001249C1F8FC03EE
:100BA00000BD30B5002010490546044608600FE03E
:100BB0000520FFF784FBFFF780FC0B480068401C12
:100BC0000949086009480068044409480068054468
:100BD00005480068052812DA064800680CE00000A5
:100BE000FC730040007000409C25002094250020EC
:100BF00098250020FC43004010F0400FD8D0FD485D
:100C0000006894FBF0F0FC490860FA48006895FB26
:100C1000F0F0FA490860F8480068172190FBF1F0FD
:100C200040F25311081AF4490860F44800681A2188
:100C300090FBF1F02B38F149086030BD30B56623E8
:100C400040F23F1200210846FFF725FDEC480068FE
:100C500020F00100EB49C1F8FC034FF0000404E070
:100C600001210020FFF7E3FC641C47F68A708442F0
:100C7000F6DBE348006840F00100E249C1F8FC03FC
:100C80004FF0EF0340F23F124FF066014FF00000CB
:100C9000FFF701FDDB48D0F8FC0320F00100D94943
:100CA000C1F8FC03002416E0072511E0D648005DDA
:100CB0000121A940084205D001214FF47040FFF7FF
:100CC000B6FC04E001214FF4E070FFF7B0FC6D1EAC
:100CD000002DEBDA641C41F290508442E4DBC848FA
:100CE000006840F00100C749C1F8FC0330BD2DE9A0
:100CF000F04304460D461646994660783044401E3F
:100D000003B220782844401E02B231462846FFF73D
:100D1000C2FCBB48006820F00100BA49C1F8FC03DE
:100D20004FF0030718E04FF0070811E0E15D0120E4
:100D300000FA08F0014205D01FFA89F00121FFF7FF
:100D400076FC03E001210020FFF771FCA8F1010807
:100D5000B8F1000FEADA7F1C6178227811FB02F00B
:100D6000C11700EB5171B7EBE10FDCDDA44800685F
:100D700040F00100A349C1F8FC03BDE8F0832DE970
:100D8000F0410020A14908800025002720E2322000
:100D9000FFF795FA9E48006810F0400F01D1002F30
:100DA0005ED0002F5BD09A48006810F0400F56D0FC
:100DB000652340F23F1200210846FFF76CFC904883
:100DC000006820F001008F49C1F8FC034FF00004D7
:100DD00004E001210020FFF72AFC641C47F68A701A
:100DE0008442F6DB8648006840F001008549C1F87E
:100DF000FC034FF00000804604464FF49E7628E046
:100E0000844A52F824201278B21A11B2814A52F858
:100E100024006FF0FF034246FFF769FF7D4850F85A
:100E200024000078301A06B27848B0F90000401E5D
:100E3000A0420DDD7749601C51F820000078401D6C
:100E4000B04205DD4FF49E7608F119000FFA80F8E4
:100E5000641C6E48B0F900008442D1DB0027AFE388
:100E6000FFF79FFE0127654800686C2800DAA7E3BA
:100E7000624800686C284FDD6048006889284BDABA
:100E80005D480068D62823DD5B480068B0F59D7F8B
:100E90001EDA5E48B0F90000002818DD5B480088C3
:100EA000401E00B2594908805A48B1F9001050F864
:100EB00021005949884200D1012556485349B1F9CA
:100EC000001050F821008078662800D1002577E3D3
:100ED000494800686E2812DD47480068D2280EDABB
:100EE0004D484C49494AB2F9002041F82200474890
:100EF0000088401C00B245490880BDE8F0813E48AA
:100F00000068062808DD3C4800686A2804DA0020EA
:100F10003E490880002553E33C48B0F900001E28F4
:100F200000DD4DE335480068CD287FDD334800689B
:100F3000EA287BDA3048006806283ADD2E48006847
:100F40002E2836DA3148B0F90000401E314951F8F8
:100F50002000324988421DD02C48B0F90000401EC4
:100F60002C4951F820002E49884213D02748B0F967
:100F70000000401E274951F820002A49884209D024
:100F80002248B0F90000401E224951F820002649AD
:100F9000884200D114E324481E491C4AB2F90020BB
:100FA00041F8220019480088401C00B21749088007
:100FB00006E311480068312858DD0F4800685A28B8
:100FC00054DA1248B0F90000401E124951F82000CE
:100FD000124988423BD00D48B0F90000401E0D492F
:100FE00051F820000E49884231D00848B0F900007D
:100FF000401E1CE09C250020942500209825002000
:10100000FC7300400070004044060020A025002032
:10101000FC430040D0260020000000206600002095
:1010200033000020CC000020990000208FE0FE4912
:1010300051F82000FD49884209D0FD48B0F9000070
:10104000401EF94951F82000FA49884200D1B7E220
:10105000F648F549F64AB2F9002041F82200F44872
:101060000088401C00B2F2490880A9E2F2480068FA
:101070005D2811DDF048006887280DDAEF48EA495D
:10108000EB4AB2F9002041F82200E9480088401CF0
:1010900000B2E749088093E2E74800688A2811DD3A
:1010A000E5480068B4280DDAE549DF48E04AB2F9BE
:1010B000002040F82210DE480088401C00B2DC49C5
:1010C00008807DE2DC480068B72811DDDA48006856
:1010D000E2280DDADB48D449D54AB2F9002041F8BC
:1010E0002200D3480088401C00B2D149088067E242
:1010F000D1480068E52812DDCF480068B0F5887F48
:101100000DDCD148C849CA4AB2F9002041F8220092
:10111000C7480088401C00B2C549088050E2C64854
:101120000068B0F5897F12DDC3480068B0F59E7F86
:101130000DDAC649BC48BE4AB2F9002040F8221078
:10114000BB480088401C00B2B949088038E2C0485A
:101150000068AE2877DDBE480068CA2873DAB64852
:101160000068062835DDB44800682E2831DA022DE3
:1011700021D1AF48B0F90000401EAB4951F8200022
:10118000AA49884217D0AA48B0F90000401EA649D3
:1011900051F82000A74988420DD0AE49A248A44A80
:1011A000B2F9002040F82210A1480088401C00B28B
:1011B0009F4908800025A8499B489D4AB2F9002014
:1011C00040F822109A480088401C00B298490880D4
:1011D000F6E199480068312836DD974800685A28BA
:1011E00032DA022D21D19248B0F90000401E8E491A
:1011F00051F820008D49884217D08D48B0F9000081
:10120000401E894951F820008A4988420DD09148F2
:101210008549874AB2F9002041F8220084480088B5
:10122000401C00B28249088000258C487E49804AD3
:10123000B2F9002041F822007D480088401C00B22D
:101240007B490880BCE170E07B4800685D2811DDC7
:101250007948006887280DDA81487349744AB2F9E1
:10126000002041F8220072480088401C00B27049FA
:101270000880A5E1704800688A2811DD6E48006882
:10128000B4280DDA77496848694AB2F9002040F875
:10129000221067480088401C00B2654908808FE131
:1012A00065480068B72811DD63480068E2280DDA58
:1012B0006D485D495E4AB2F9002041F822005C4861
:1012C0000088401C00B25A49088079E15A480068F9
:1012D000E52812DD58480068B0F5877F0DDC6349CA
:1012E0005148534AB2F9002040F822105048008873
:1012F000401C00B24E49088062E14F480068B0F5DA
:10130000897F12DD4C480068B0F59E7F0DDA5849A0
:101310004548474AB2F9002040F822104448008866
:10132000401C00B2424908804AE1494800688D28C3
:1013300078DD47480068A92874DA3F480068062825
:101340002DDD3D480068372829DACDB141483649BE
:10135000374AB2F9002041F8220035480088401C85
:1013600000B23349088031492F48314AB2F9002090
:1013700040F822102E480088401C00B22C490880FA
:101380003C4929482A4AB2F9002040F8221028484E
:101390000088401C00B226490880022510E126483A
:1013A00000683B282DDD244800686C2829DACDB17F
:1013B00028491D481E4AB2F9002040F822101C4856
:1013C0000088401C00B21A49088018491648184A7B
:1013D000B2F9002040F8221015480088401C00B2E5
:1013E0001349088024481049114AB2F9002041F8F5
:1013F00022000F480088401C00B20D4908800125DA
:10140000DEE00D48006870285ADD0B480068A1280E
:1014100056DA45B10F490448054AB2F9002040F8B0
:1014200022102BE0CBE03CE0D0260020CC000020B6
:10143000A02500209900002094250020CA02002049
:10144000970200206402002031020020FE010020EB
:1014500098250020000000203300002066000020B6
:10146000CB010020980100206501002032010020FE
:10147000FF000020E105002053040020F748008809
:10148000401C00B2F5490880F549F648F34AB2F924
:10149000002040F82210F1480088401C00B2EF49BB
:1014A0000880F148EF49ED4AB2F9002041F82200E6
:1014B000EA480088401C00B2E849088001257FE026
:1014C000EA480068A5282DDDE8480068D62829DA12
:1014D000CDB1E748E349E14AB2F9002041F82200E2
:1014E000DE480088401C00B2DC490880DC48DD4949
:1014F000DA4AB2F9002041F82200D8480088401C9E
:1015000000B2D6490880DB48D649D44AB2F9002057
:1015100041F82200D1480088401C00B2CF49088021
:1015200001254DE0D1480068DA282EDDCF4800685B
:10153000B0F5857F29DCCDB1CD49CA48C74AB2F99B
:10154000002040F82210C5480088401C00B2C34962
:101550000880C349C348C14AB2F9002040F82210AC
:10156000BE480088401C00B2BC490880C249BD4842
:10157000BA4AB2F9002040F82210B8480088401C4E
:1015800000B2B649088001251AE0B8480068B0F5F5
:10159000887F14DBB5480068B0F59E7F0FDA75B11F
:1015A000B349B048AD4AB2F9002040F82210AB4828
:1015B0000088401C00B2A9490880002500E000BF57
:1015C000FFF7E5BBF0B50020002100263446334686
:1015D0003546324600BFB5E1A24E56F82060B678D7
:1015E0002F2E12DD9F4E56F82060B6783A2E0CDA78
:1015F0000CB90124002101EB81067100994E56F8C7
:101600002060B678303E31449BE1002C7CD0002431
:101610000DB1494200256BBB022A15D0974EB6F991
:101620000060C6EBC606964F07EB860676884E43EB
:1016300036B2924FB7F90070C7EBC707DFF840C268
:101640000CEB87077E8075E08C4EB6F90060C6EB28
:10165000C6068B4F07EB8606B6884E4336B2874FD9
:10166000B7F90070C7EBC707DFF814C20CEB8707A8
:10167000BE805FE0012B2DD1022A15D07F4EB6F936
:101680000060C6EBC6067E4F07EB860676894E43A2
:1016900036B27A4FB7F90070C7EBC707DFF8E0C181
:1016A0000CEB87077E8145E0744EB6F90060C6EB0F
:1016B000C606734F07EB8606B6894E4336B26F4FA8
:1016C000B7F90070C7EBC707DFF8B4C10CEB8707A9
:1016D000BE812FE0032B2DD1022A16D0674EB6F91A
:1016E0000060C6EBC606664F07EB8606F6880E441A
:1016F00036B2624FB7F90070C7EBC707DFF880C199
:101700000CEB8707FE8015E015E05C4EB6F9006033
:10171000C6EBC6065A4F07EB860636894E4336B2ED
:10172000564FB7F90070C7EBC707DFF854C10CEB91
:1017300087073E8100224B4E56F82060484FBE423C
:1017400005D0484E56F820604E4FBE4209D1454E56
:1017500056F820604B4FBE4201D1022200E0012228
:10176000EFE0404E56F82060B678662E75D1434EB5
:10177000B6F90060C6EBC606414F17F826602D2E5D
:1017800019D0022A08D12F263F4FDFF8F0C0BCF94C
:1017900000C007F80C6007E02A263B4FDFF8DCC0EA
:1017A000BCF900C007F80C600022344E3688761C65
:1017B00036B2324F3E802B4E56F820602A4FBE4242
:1017C00009D163262D4FB7F90070C7EBC707DFF8C3
:1017D000B0C00CF82760234E56F820602B4FBE4255
:1017E00009D17326254FB7F90070C7EBC707DFF89B
:1017F00090C00CF827601B4E56F820601D4FBE426B
:1018000009D174261D4FB7F90070C7EBC707DFF881
:1018100070C00CF82760134E56F82060164FBE4279
:1018200009D16526154FB7F90070C7EBC707DFF878
:1018300050C00CF827600B4E56F82060144FBE4283
:1018400009D178260D4FB7F90070C7EBC707DFF84D
:1018500030C00CF82760012373E01BE0A0250020B6
:10186000CC000020D0260020FD020020942500207E
:10187000000000201E050020C0030020902500204D
:10188000AC25002099000020C4260020530400202D
:10189000E1050020FE4E56F82060FE4FBE4201D109
:1018A00000234EE0FA4E56F82060FB4FBE4205D0B2
:1018B000F74E56F82060F94FBE4241D1F84E3688B7
:1018C0003EB9F34E56F82060F44FBE4200D10125D8
:1018D00037E00AB1012534E06BB92B27F14EDFF870
:1018E000C8C3BCF900C006F80C70EF4E3688761CF1
:1018F00036B2ED4F3E80012B1AD1EB4EB6F90060A7
:10190000C6EBC606E94F17F82660782E0FD10023E4
:101910002B26E44FDFF890C3BCF900C007F80C6039
:10192000E14E3688761C36B2DF4F3E8000E003235E
:10193000D74E56F82060D94FBE4200D1012500E0B5
:1019400000BF401CD64EB6F90060B042FFF644AE70
:101950000020C3E0C0EBC006D44F07EB8606B68874
:101960003EB90126C0EBC007DFF840C30CEB870788
:10197000BE80C0EBC006CD4F07EB8606B6893EB9E8
:101980000126C0EBC007DFF824C30CEB8707BE813C
:10199000C0EBC006C54F07EB860636893EB9012667
:1019A000C0EBC007DFF804C30CEB87073E81C0EB38
:1019B000C006BE4F07EB8606B6F9026000EE106A5D
:1019C000F8EEC00AC0EBC00607EB8606B6F9046065
:1019D00000EE106AB8EEC00A80EE801AC0EBC006B6
:1019E00007EB860686ED041AC0EBC00607EB8606F9
:1019F000B6F90A6000EE106AF8EEC00AC0EBC00645
:101A000007EB8606B6F90C6000EE106AB8EEC00A65
:101A100080EE801AC0EBC00607EB860686ED051A3D
:101A2000C0EBC00607EB8606B6F9066000EE106A4A
:101A3000F8EEC00AC0EBC00607EB8606B6F90860F0
:101A400000EE106AB8EEC00A80EE801AC0EBC00645
:101A500007EB860686ED061AC0EBC00607EB860686
:101A600096ED040ADFED920AB4EEE00AF1EE10FA08
:101A700007DD9FED8F0AC0EBC00607EB860686EDFB
:101A8000040AC0EBC006894F07EB860696ED050AEF
:101A9000F2EE0E0AB4EEE00AF1EE10FA07DDB2EE55
:101AA0000E0AC0EBC00607EB860686ED050AC0EB02
:101AB000C0067E4F07EB860696ED060ADFED7D0A2F
:101AC000B4EEE00AF1EE10FA07DD9FED7A0AC0EB02
:101AD000C00607EB860686ED060A401C724EB6F974
:101AE0000060B0427FF736AFF0BD0121002801DA77
:101AF000891E40424FF4B47290FBF2F302FB1300D4
:101B0000B42805DDB42290FBF2F302FB1300494236
:101B10005A280BDC684A02EB8002D2ED000A00EE84
:101B2000101AB8EEC00A20EE800A7047C0F1B40265
:101B3000614B03EB8202D2ED000A00EE101AB8EE00
:101B4000C00A20EE800AF0E70121002800DA4042B6
:101B50004FF4B47290FBF2F302FB13005A2803DD3A
:101B6000B0F5877F00DA4942B42804DDB42290FB47
:101B7000F2F302FB13005A280DDCC0F15A024E4B5F
:101B800003EB8202D2ED000A00EE101AB8EEC00A92
:101B900020EE800A7047A0F15B02474B03EB820204
:101BA000D2ED000A00EE101AB8EEC00A20EE800A4C
:101BB000F0E710B504462046FFF7C6FFB0EE401A26
:101BC000B5EEC01AF1EE10FA02D19FED3C0A10BD3D
:101BD0002046FFF78AFFC0EE010AB0EE601AB0EEB1
:101BE000410AF4E700B503461846354991ED000A6D
:101BF000FEF771FBB0EE402AB0EE420A00BD10B510
:101C00000024EF2340F23F1200210846FEF743FD77
:101C10002C48006820F001002B49C1F8FC0300BFEC
:101C200004E001210020FEF702FD641CB4F5963F9C
:101C3000F7DB2448006840F001002349C1F8FC03A9
:101C40004FF0FF334FF000024FF498711F48FFF739
:101C50004EF84FF0FF330C224FF498711C48FFF7F9
:101C600046F86FF0FF03002211461A48FFF73FF8CD
:101C70006FF0FF035F2200210748FFF738F86FF08D
:101C8000FF03782200210548FFF731F824E0000027
:101C9000D026002000000020660000203300002035
:101CA000A0250020C426002090250020AC2500207F
:101CB0000000C842000048431824002000401C4691
:101CC00088250020FC73004000700040EC230020B9
:101CD00001240020CC0000206FF0FF0300228D21A2
:101CE000F948FFF704F86FF0FF030022A521F74839
:101CF000FEF7FDFFEF23A02200219F20FEF7CBFC83
:101D0000F348D0F8FC0320F00100F149C1F8FC03CE
:101D1000002405E001214FF20F00FEF788FC641C4F
:101D2000B4F5F07FF6DBEB48006840F00100E849CD
:101D3000C1F8FC034FF0780340F23F124FF07701F7
:101D40004FF00000FEF7A7FCE148D0F8FC0320F0BC
:101D50000100DF49C1F8FC03002405E001214FF236
:101D60000F00FEF764FC641CB4F5207FF6DBD94855
:101D7000006840F00100D649C1F8FC0310BD10B561
:101D8000F0EE402A002407E09FEDD30AD34800EB91
:101D9000840080ED000A641C0A2CF5DB0024C8E0F6
:101DA000C4EBC400CE4911F82000782827D1C4EB39
:101DB000C401CB4A02EB810191ED050ABDEEC00AD8
:101DC00010EE100AB0EE620AFEF785FAC34800EB87
:101DD000840080ED000AC14800EB840090ED000A09
:101DE000C4EBC400BE4901EB8000D0ED040A20EE34
:101DF000200ABA4800EB840080ED000A98E0C4EBAA
:101E0000C400B74911F820002D280BD1C4EBC40041
:101E100001EB800090ED040AB04800EB840080EDF7
:101E2000000A85E0C4EBC400AD4901EB800090EDF1
:101E3000050A20EE220AF0EE402AC4EBC40001EBB2
:101E4000800090ED060A30EE220AF0EE402AC4EB44
:101E5000C40011F82000732810D1A24991ED000AA6
:101E600020EE220ABDEEC00A10EE100AFFF73DFE7A
:101E70009A4800EB840080ED000A45E0C4EBC40002
:101E8000974911F82000632810D1964991ED000A76
:101E900020EE220ABDEEC00A10EE100AFFF754FE33
:101EA0008E4800EB840080ED000A2DE0C4EBC400F6
:101EB0008B4911F82000742810D18A4991ED000A4D
:101EC00020EE220ABDEEC00A10EE100AFFF771FEE6
:101ED000824800EB840080ED000A15E0C4EBC400EA
:101EE0007F4911F8200065280ED19FED7F0A22EE70
:101EF000800ABDEEC00A10EE100AFFF773FE7748A5
:101F000000EB840080ED000A744800EB840090ED43
:101F1000000AC4EBC400724901EB8000D0ED040A52
:101F200020EE200A6D4800EB840080ED000A00BF1F
:101F3000641C6E48B0F9000084427FF731AF6748F7
:101F400090ED003ADFED643A012429E0601E684913
:101F5000085C2A2809D1614800EB840090ED000A52
:101F600020EE030AB0EE403A19E0601E6049085CBA
:101F70002F2809D1594800EB840090ED000AC3EEE8
:101F8000000AB0EE603A0AE033EE830AF0EE403A1F
:101F9000524800EB840090ED000AB0EE403A641C19
:101FA0005248B0F900008442D0DD33EE830AF0EEEF
:101FB000403AB0EE630A10BDF0B56FF09E0500EE3A
:101FC000105AB8EEC00A4B48D0ED000A80EE201A35
:101FD000F0EE414A6D1CB0EE640AFFF7D0FE4648B1
:101FE000D0ED000A20EE200ABDEEC00A10EE106A05
:101FF0006D1E56E000EE105AB8EEC00A3D48D0ED16
:10200000000A80EE201AF0EE414AB0EE640AFFF7B3
:10201000B6FE3948D0ED000A20EE204A9FED370A7F
:10202000B4EEC04AF1EE10FA02DD47F2305703E099
:10203000BDEEC40A10EE107AC7F1770C0FFA8CF3DC
:10204000C5F1A00C0FFA8CF2C6F1770C0FFA8CF1E7
:10205000C5F1A00C0FFA8CF0FEF71DFBF61B002E4D
:1020600000DA7642F02E00DDF0261A48006820F0F3
:1020700001001749C1F8FC034FF0000405E00121FD
:102080004FF47F60FEF7D3FA641CB442F7DD1148C9
:10209000006840F001000E49C1F8FC033E4605F11E
:1020A00001059F2DA6DBEF23002211461046FEF707
:1020B000F2FA0848006820F001000549C1F8FC0365
:1020C0004FF0000421E000006600002033000020F3
:1020D00000700040FC7300400000000084270020D6
:1020E000AC2500208C25002000007A44902500209B
:1020F000C4260020A4250020A82500200060EA4670
:1021000001210020FEF793FA641CF02CF8DBFE4856
:10211000006840F00100FD49C1F8FC034FF0EF03F7
:1021200040F23F124FF000011046FEF7B4FAF748B4
:10213000D0F8FC0320F00100F449C1F8FC030024AE
:1021400004E001210020FEF772FA641CF02CF8DB99
:10215000ED48006840F00100EC49C1F8FC034FF085
:10216000000340F23F1219461846FEF794FAE7487A
:10217000D0F8FC0320F00100E449C1F8FC0300247E
:1021800004E001210020FEF752FA641CB4F5A07FA0
:10219000F7DBDD48006840F00100DC49C1F8FC03D2
:1021A0004FF0EF0340F23F1219464FF00000FEF7E8
:1021B00072FAD648D0F8FC0320F00100D349C1F8E8
:1021C000FC03002404E001210020FEF730FA641C27
:1021D000B4F5A07FF7DBCC48006840F00100CB49A4
:1021E000C1F8FC03F0BDF0B51FED411A20EE011A55
:1021F000BDEEC11A11EE107A1FED451A20EE811ABC
:10220000BDEEC11A11EE106AC148864200DD0646D5
:1022100003234FF496721946101FFEF73CFABA4892
:10222000006820F00100B949C1F8FC034FF0000438
:1022300005E03914080C0121FEF7F9F9641C052C9E
:10224000F7DBB148006840F00100B049C1F8FC0379
:10225000002F00DA7F4200247FE00A2097FBF0F194
:1022600000FB117597FBF0F755B9F02000EBC400A7
:1022700001B24FF0FF330022A648FEF738FD6BE0B5
:10228000012D09D1F02000EBC40001B2AB1E0022E9
:10229000A148FEF72CFD5FE0022D09D1F02000EBF4
:1022A000C40001B2EB1E00229C48FEF720FD53E063
:1022B000032D09D1F02000EBC40001B22B1F002236
:1022C0009748FEF714FD47E0042D09D1F02000EBFC
:1022D000C40001B26B1F00229248FEF708FD3BE0EC
:1022E000052D09D1F02000EBC40001B2AB1F002284
:1022F0008D48FEF7FCFC2FE0062D09D1F02000EB05
:10230000C40001B2EB1F00228848FEF7F0FC23E076
:10231000072D0AD1F02000EBC40001B24FF0FF33CB
:1023200000228348FEF7E3FC16E0082D0AD1F020D6
:1023300000EBC40001B24FF0FF3300227D48FEF7EE
:10234000D6FC09E0F02000EBC40001B24FF0FF33EF
:1023500000227948FEF7CBFC641C032CFFF67DAF0E
:10236000052340F20B120321901EFEF794F96648F4
:10237000006820F001006549C1F8FC034FF000043B
:1023800005E001214FF6FF70FEF751F9641C092C9E
:10239000F7DB5D48006840F001005C49C1F8FC03D0
:1023A0004FF0000489E00A2097FBF0F100FB117563
:1023B00097FBF0F75DB94FF4867000EBC40001B2F3
:1023C0004FF0FF3300225348FEF791FC74E0012DDB
:1023D0000AD14FF4867000EBC40001B2AB1E00229C
:1023E0004D48FEF784FC67E0022D0AD14FF4867059
:1023F00000EBC40001B2EB1E00224848FEF777FC58
:102400005AE0032D0AD14FF4867000EBC40001B2EC
:102410002B1F00224248FEF76AFC4DE0042D0AD132
:102420004FF4867000EBC40001B26B1F00223D48E0
:10243000FEF75DFC40E0052D0AD14FF4867000EBFD
:10244000C40001B2AB1F00223748FEF750FC33E056
:10245000062D0AD14FF4867000EBC40001B2EB1FC9
:1024600000223248FEF743FC26E0072D0BD14FF443
:10247000867000EBC40001B24FF0FF3300222C48FD
:10248000FEF735FC18E0082D0BD14FF4867000EBF9
:10249000C40001B24FF0FF3300222648FEF727FCAC
:1024A0000AE04FF4867000EBC40001B24FF0FF3336
:1024B00000222148FEF71BFC641C032CFFF673AFBF
:1024C0000F234FF496721946101FFEF7E4F80E48DA
:1024D000006820F001000D49C1F8FC034FF0000432
:1024E00005E03114080C0121FEF7A1F8641C052C4D
:1024F000F7DB0548006840F001000449C1F8FC031F
:10250000002E00DA764219E0FC73004000700040B3
:102510003F420F00602300206E2300207C23002018
:102520008A23002098230020A6230020B423002023
:10253000C2230020D0230020DE23002000247FE0DF
:102540000A2096FBF0F100FB116596FBF0F655B9F9
:10255000F02000EBC40001B24FF0FF330B22F9482A
:10256000FEF7C5FB6BE0012D09D1F02000EBC400A4
:1025700001B2AB1E0B22F448FEF7B9FB5FE0022D5F
:1025800009D1F02000EBC40001B2EB1E0B22EF4892
:10259000FEF7ADFB53E0032D09D1F02000EBC400A2
:1025A00001B22B1F0B22EA48FEF7A1FB47E0042DE6
:1025B00009D1F02000EBC40001B26B1F0B22E548EB
:1025C000FEF795FB3BE0052D09D1F02000EBC400A0
:1025D00001B2AB1F0B22E048FEF789FB2FE0062D6E
:1025E00009D1F02000EBC40001B2EB1F0B22DB4845
:1025F000FEF77DFB23E0072D0AD1F02000EBC4009D
:1026000001B24FF0FF330B22D548FEF770FB16E006
:10261000082D0AD1F02000EBC40001B24FF0FF33C7
:102620000B22D048FEF763FB09E0F02000EBC4006A
:1026300001B24FF0FF330B22CB48FEF758FB641C6E
:10264000032CFFF67DAF0F2340F20B120D21901EDD
:10265000FEF721F8C548006820F00100C449C1F820
:10266000FC034FF0000405E001214FF6FF70FDF779
:10267000DEFF641C092CF7DBBC48006840F0010059
:10268000BB49C1F8FC034FF0000489E00A2096FB27
:10269000F0F100FB116596FBF0F65DB94FF4867022
:1026A00000EBC40001B24FF0FF330B22A548FEF748
:1026B0001EFB74E0012D0AD14FF4867000EBC400BC
:1026C00001B2AB1E0B22A048FEF711FB67E0022D02
:1026D0000AD14FF4867000EBC40001B2EB1E0B224E
:1026E0009A48FEF704FB5AE0032D0AD14FF4867096
:1026F00000EBC40001B22B1F0B229548FEF7F7FA3E
:102700004DE0042D0AD14FF4867000EBC40001B2F5
:102710006B1F0B228F48FEF7EAFA40E0052D0AD125
:102720004FF4867000EBC40001B2AB1F0B228A4845
:10273000FEF7DDFA33E0062D0AD14FF4867000EB88
:10274000C40001B2EB1F0B228448FEF7D0FA26E04A
:10275000072D0BD14FF4867000EBC40001B24FF08F
:10276000FF330B227E48FEF7C2FA18E0082D0BD18A
:102770004FF4867000EBC40001B24FF0FF330B2220
:102780007848FEF7B4FA0AE04FF4867000EBC40014
:1027900001B24FF0FF330B227348FEF7A8FA641C16
:1027A000032CFFF673AFF0BDFDF7D2FEFEF722F863
:1027B000FDF7C6FDEF2340F23F1200210846FDF76A
:1027C0006AFF6A48006820F001006949C1F8FC030B
:1027D0004FF0000404E001210020FDF728FF641CF5
:1027E000B4F5963FF7DB6148006840F001006049AE
:1027F000C1F8FC034FF000005E4908804FF0730001
:102800005D4908709FED5D0A084680ED040AB0EE50
:10281000000A80ED050A9FED5A0A80ED060AFFF7CF
:10282000CBFB9FED580A544880ED040AFFF7C4FB28
:10283000A123FB224E214420FDF72DFF4C48D0F868
:10284000FC0320F001004A49C1F8FC03002415E014
:10285000072510E04C48005D0121A940084205D041
:1028600001214FF47870FDF7E2FE03E00121002022
:10287000FDF7DDFE6D1E002DECDA641C40F28C705D
:102880008442E5DB3948006840F001003849C1F86E
:10289000FC0300BF3D48006810F0400FFAD110E182
:1028A000FDF74EFDFEF7CAF9FEF769FAFEF78AFE5C
:1028B000FFF7A5F9FFF780FB002600E108E06420A0
:1028C000FDF7FDFC3148006810F0400F00D00026F5
:1028D0002E48006810F0400FF1D1002EEFD1FEF726
:1028E00060F901262A4800680F2877DA284800682E
:1028F000012873DD274800680F2804DA254800689E
:10290000012800DDDCE0234800689C2846DA2148E5
:1029100000688D2842DD204890ED000AF1EE0C0A97
:10292000B4EEE00AF1EE10FA38D290ED000AF7EEBC
:10293000000A30EE200A80ED000AFFF760F9FFF789
:102940003BFBBCE0602300206E2300207C230020A2
:102950008A23002098230020A6230020B4230020EF
:10296000C2230020D0230020DE230020FC7300407F
:102970000070004090250020AC2500200000A042FF
:10298000000000000000A0C2D41B0020FC43004057
:102990009825002094250020A8250020494800689B
:1029A000B4281BDA47480068A52817DD464890ED93
:1029B000000AF7EE000AB4EEE00AF1EE10FA0DDDBF
:1029C00090ED000AF7EE000A30EE600A80ED000A92
:1029D000FFF715F9FFF7F0FA71E0FFE739480068F3
:1029E0000F2841DA3748006801283DDD3748006884
:1029F0006E281ADA354800685F2816DD344890EDF5
:102A0000000ADFED340AB4EEE00AF1EE10FA0CD25F
:102A100090ED000AF0EE080A30EE200A80ED000A80
:102A2000FFF7EDF8FFF7C8FA49E028480068872863
:102A30001ADA26480068782816DD254890ED000A45
:102A4000F2EE040AB4EEE00AF1EE10FA0CDD90EDBD
:102A5000000AF0EE080A30EE600A80ED000AFFF787
:102A6000CEF8FFF7A9FA2AE016480068C0F19F00E7
:102A700000EE100AB8EEC00A1548D0ED000A80EE4C
:102A8000201AB0EE415AB0EE450AFFF778F9B0EEE1
:102A9000404A0C480068C0F19F0000EE100AB8EEF2
:102AA000C00A0B48D0ED000A80EE201AF0EE414A31
:102AB000F0EE440AB0EE640AFFF795FB00BFFDE6B6
:102AC00000BFEDE694250020A825002098250020D1
:102AD000A425002000002042064C074D06E0E068D7
:102AE00040F0010394E8070098471034AC42F6D355
:102AF000FDF7D4FB782B0000982B000070B501EB9C
:102B0000020410F8015B15F0070301D110F8013B36
:102B10002A1106D110F8012B03E010F8016B01F81F
:102B2000016B5B1EF9D12B0705D40023521E0FD475
:102B300001F8013BFAE710F8013B02F10202A1EBB8
:102B4000030303E013F8015B01F8015B521EF9D5A2
:102B5000A142D6D3002070BD02E008C8121F08C1F0
:102B6000002AFAD170477047002001E001C1121F0E
:102B7000002AFBD170470000982B000000000020C5
:102B8000AC250000FC2A0000C43A0000AC2500205F
:102B900004060000682B0000741018291E6001F064
:102BA00003E0021AC0021A800219081501C001E0F0
:102BB00012601270123012381218620C04141018BD
:102BC0002D2B3FFE020116A410182B395E39022B63
:102BD0007FFC028910C933622F121C1A1E022A0FB1
:102BE000022D800780079714E001F0290212781A5D
:102BF0003C021A1C025933E22A2813088808880468
:102C00009002A001C01FF801C002A0049012C96682
:102C10006230381407C007C01FE03FF03CF0383C7A
:102C2000381C381E3C0E1C0218090E1E07FE07FC3D
:102C300003FC6E793382312A02CC1AF00279C2A9E0
:102C400002A9666A32FB2F07C00E600C3002120622
:102C500012071A03121301C012E0CE701FF81FF8FA
:102C6000996233121F1E3F8039C03802121C120FA6
:102C7000141F803E180B3C703C381E1C0F1C079C18
:102C80009799355C1018346639561301E0100FF02F
:102C900018701C381C3C1C1E1FFE1FFC1E29025AEB
:102CA0000F0269335A35661BE00F021112601B6078
:102CB00007082A1F2B2D380E3C0F6629FDAA7866BF
:102CC00042361A0E44180F078003C003E001F007D4
:102CD000F00FF81E78683B3C1C0110090E1C0F3CDD
:102CE00007FC01F86AF03382373D1FFC1FFC393FB7
:102CF000800FF00FF003A519021A78021A38029912
:102D000066590D1C0FC01FC6181B18301C700C70A4
:102D100007E007C00FC00E700C380C180C180E1806
:102D200007F803F0417933623919C21CF00E78F9C3
:102D300019011B1E3C723AF8F7168007C001F03AE1
:102D4000F86A71041A401866695972706936721807
:102D50004A1CA0130F0E1B780F751018BE0F01FC34
:102D60001F83C003F80701CE3DE3F001F007818F18
:102D700038F0F81808F0078007387838101E803FC0
:102D800038381C201E80FE38380C08101981FE3897
:102D90007B0C03FE0F81F81CFB9C079F1F01E00FBB
:102DA000F1FC0F0F3C45F707E1F8227F42F0021BD0
:102DB0003EFA30C342033BC007C32B0F80C12B1D1B
:102DC000C0BF2A38D11A3C061C0C1E0E0610160E67
:102DD0003C0E7073800778067077C003F00760368A
:102DE000E001E00713067029062A300C1B03F818CF
:102DF000111601F807FC0F1618380FBE0E161E78B4
:102E00001F1E3E160FF01E0E7C1403E00C02153838
:102E1000FA4093317218221C399B5A0C085A060842
:102E200019052903148F038013C00F101103DE034B
:102E3000801FC71D8001FC01C03FE798E03AF808F9
:102E40005AF008127028087801C038E78070102DF9
:102E50003877C7F02818093077DFE003FE038008D1
:102E600011100807EF07803073DC1407870F4F300D
:102E700033CC70070708616307F0032003E00913F0
:102E8000CB712B0180052AC003390811294E1A0184
:102E900005396619632278121E15F01C3C1C681552
:102EA0000C3F81F01E781C01FC39C1FC0FF00E01B3
:102EB000FF38E07C082B07E0081C703803082DDF82
:102EC0003E3838102D8FBE1C3C201B87BF08681071
:102ED000F81E0187BB9C3C1E3C7C0187B9FCFC08AA
:102EE00018081C1CF8018798F86559D601178A2024
:102EF000C3326023700E1A300423181F101A1C1BD3
:102F0000381E0E1B3C7C0E71FEFC0771DFF0077152
:102F1000CFE00760C7C0071A03041407E007141FB7
:102F2000F00E141FFC1E143E3E3C198201170AEDE0
:102F3000FF01B2F0C303E0C27C0AC31F280B2103C8
:102F4000802819156B034028BA07289A70281B019E
:102F5000B0197A6028AA8028AA30281A98196A70AD
:102F600028AB0FC028DA38286B01F0280A110E2888
:102F7000380D070301E01883C1DC301E0338281E1A
:102F800070780E06E179D928380D0FC7C3F83DC710
:102F900060CC7C3983B8282EF8E61F8673D72928A1
:102FA000121C3C60703F28480D0EC3E39C7FC77025
:102FB0004E3E39C79C281DE71D83710939282E3FD5
:102FC0000C71FC1E86480D7C0EE1E3CE7BE339CE0E
:102FD0001E3CE3286E5CF39DC378284D3B0F71EED9
:102FE00028580D067073CE79E339EF073CE3DC28EF
:102FF0001C8CE0B89449282E8FF3CF1C6028480D14
:10300000037073C739E0F9FF0738731C286DE1C6F8
:10301000E438282F19CFFB871E7028580B0DF27348
:10302000E738F3F9DF273E286E1CF9DBE239283E4A
:103030000DCFF9871C28480C0673F3BF1CF7E0CFAF
:103040003F3BF1A05F1CEFCCE3F9F8283E37CE7987
:10305000873E28380D03F1F79F1FF3B0771F79F0F3
:10306000FC286E1DE7C7E1F8282E19CE79CF3D1652
:10307000127C380CE0E38E077398760E38E07828DF
:103080001E0CE381C0F04339284E0FDE38FF3C2888
:10309000412B71D80C1139288139283E038C183CFA
:1030A0001878512B3079150911289159284915099B
:1030B0001F2812100A23C02871099F280AC5FF0182
:1030C00049F09B0F80E359F7621F4AF80D09F02879
:1030D0006A06280A10C0280A20C0288A18283A0E32
:1030E000286A0F28FAE0281A010A1928190A19284B
:1030F0006A0928BA60282A1C283A20283A1E28146F
:10310000198E1C1A0F04880A1803C07C30E0380C92
:103110000C283B0330283A1C281418873810110F4C
:103120008738031C47607C19C0743F1E03E38E156B
:1031300018781E1F2D70E311C0283A38281B30C3A1
:10314000A4101583F003DCE7707C0F80763B8F03BF
:10315000E1DC031CE61F1F0D1039C61BF0281CFC08
:10316000F338281F377BC703E0F83519288D1F86F1
:103170001BB02829D62E0F81E003FE28111D3771C0
:10318000C383281CFCF38E282C8003B828CA182877
:103190001B7078281B0731281A703513871F120FF0
:1031A0009B019C281B03F878380CF8039E73F87C6D
:1031B0000FC03F31CB282BE1C728118ADCF0111B4F
:1031C00007FCF0180EFC039E77E07C1FE07C3BCFF1
:1031D00083E00D1AF9282D1FC0037C284A0C281300
:1031E0000F9C18140F8F9C078E33B07C3CE03E1F61
:1031F000C783E1FE039EEF284B3FE0785A06501A42
:103200000C5010140C030633987C18603B07030322
:10321000E3CE078EE7DF1F137CE02AFC284A032851
:1032200031330F802401D87C1A1B171EE1C6030618
:10323000E3F01338602A3828CA0128111A78281AAE
:10324000072852E0621F1928290DA92811192831D1
:1032500009FD28490D0AC5FF0139F04301C0520E8E
:103260003A70F34280521C39FE0AE51F28191909E9
:103270001228190312702B01E0283A0F2819361969
:103280000E8AC0283A03252A071A2B03F0282B1F81
:1032900080282A7C280B140760282AB8289A1D2821
:1032A000EA7028192019282A98082B3DC0282A38A6
:1032B00028EB0E38283A73282A90280A1A1C282A44
:1032C0003928290E1928397849288A1C282B7FF893
:1032D000282B38C05039F03A0D282A3C283A0628C5
:1032E0008B0FFE283A7F282A8003190E192819030C
:1032F0006928A9782A1F283A07C819FB091828192C
:103300001719503A8E53390E2A1E28FA0328191716
:1033100019282AC6283A01A0091528190319F02AE4
:10332000E6282B3FC028191112E00B13013C28118D
:103330002A7E2819AB19282A0628118AFC28311957
:103340002519BD19282A3C283A0F28311928EA786E
:10335000283119282119283179282109EF280A75DF
:10336000FF010976F00978280A1A0628190E69283B
:103370009A07285A781A19282B3F80281911190EF4
:10338000EAE0282AEC281A030319282AC0283A3C24
:10339000283AF0288A80282AC6282B0778283A3924
:1033A000282A1E283A0128191469283B01C7502AE7
:1033B0003814192519033AFEA03A30282AC0282BC0
:1033C0000D8028EAE7283AFF782AF82819251903FA
:1033D000197E69282B01F8281986121CEB01E328B5
:1033E0003A03A0193F19F0398C39F01C01E3802809
:1033F0001944192829A912C07B0FC0281A014219A3
:103400001A397B3AC1288AB02849F0190E19A02A26
:10341000B8283A07F039503B039C2819426928190B
:103420007519283A9C2839504928EA8C288A382866
:1034300049F32A67284A01288A3028191A19364977
:1034400028397819CE22E03ACC288A3828497B2AB4
:10345000DC28191419282A1FBF113A6C288A182849
:103460003A07282A78281139283119283A38288A21
:103470000828311928212928398649281958192856
:103480002109FD280912280A75FF0111150FC00333
:10349000F01401FFE03303FE137FF052FF151FE02D
:1034A00007F8140FFFFC1A07101D03FFFE03223953
:1034B000D0130FFC143FFFFE1A0F2E3F0FFFFF0724
:1034C000FFF8171AF8172A7F4E191719CC1A8739DF
:1034D000491712FE29651A1F171A3F173AFB5D5C40
:1034E0001FFC0717190F58087FCFF807F9FF80173F
:1034F0003D01FFFFF0171AFF1734F8FFC018090F3E
:10350000FC07FF01FFDFF04112802FFF87FC07F867
:103510007F8B2B0FFE176B9FF8173D03FC3FF017B7
:103520004C03FF81171AC0172DFE03FC1FA23A0798
:10353000172A8FBC39171B01FCB119177AFF171214
:10354000E014FF83FE2AFEC119177C01FFC1171387
:10355000C3FF1A3EB1211A03171AC03D113C7FF771
:10356000F017192939175A811713E7F86B7FE117FC
:103570001A0FE22BE07F173AE3172C87E003E71AD4
:103580001F171BF07F3D1B7FE3603DF9FF87F81796
:10359000292E15F83FE3FF1AFF172B1FFCBA29FE4F
:1035A00029171CFC1FF3171BE1FE572BFFC78329AC
:1035B0006119171D0FFBFF80081CC001FF8C391714
:1035C0002A0317191C2A81643917199A311DFFE043
:1035D0003FFC0F39175D03FF7FE3171C7FE03F9A25
:1035E00019EA197B1B07FE174AC1171AF01729E0C1
:1035F00019171B0FFEBA3AE1177C3FF01F176F3FF8
:10360000FC3FF1FFE3171AFC1713C7FF2C3FE0FF45
:10361000174AF3172AF817147FE7FF1B1FF1302A08
:10362000F0A9312C1FF80F171AEF172DF9FFF81F0B
:103630001719FD5917143FEFFE7D0FFCFFF0174AD5
:103640000F173AFF1747E00FF87FDFFF1C07F80757
:1036500017140FF7FC180803FE7FC007F07F3831FE
:103660001C01F801A11403E1F81401FE3F1D01F053
:103670003FE30F011203153FE02B1FE1A0091017D4
:103680000314F3F00B130FF75C1B0FFF9901120AE1
:103690001407170B1303FF450B1301FF73110A13D4
:1036A0007FA101EC131FFC131FC0200901FFFE03C3
:1036B000FFFC01FE1A7F13190716FFFF807FF81722
:1036C00007FFFF8FFFFF3BFFC0031CFFC003042B5E
:1036D000FFFE172ACF2112F01BFFE0131AE0101A89
:1036E000E12719071AEF2119521B7FF00C1BF00F6D
:1036F000172BFE7F351FE7FFFFC7C3FE17191318EF
:1037000009F01FF3FE01FE3FE05019352BCFE048D2
:1037100029172A3F17131FF0180D3FFFE07FFFDF27
:10372000F87FC07FF81F5510083FE1FF01FF0FF839
:1037300019311A7F5B5F3FC03FF81FFD176B07FC15
:103740001718091FE03FFC1FF9FF80171580FF873E
:10375000FE133FF01B7FE0171AF0045917147F8304
:10376000FF295F1EE01FF80FF8171DF8FFC03F7D0F
:103770001B3FC317195F9AF0171AF0C51932491782
:103780006EF007FC0FFE172A031719761AF8171E9A
:10379000FE0FFE0FF86619AB111E01FFC00FFC48AB
:1037A00029171919491719C869171FE003FE07FFE0
:1037B00007133B0FFE1719081129B61B03FF17CF7C
:1037C000FC3FF007FF3F1719021809FE3FF001FF09
:1037D000FFF03F041307FE3C0FFC0F172B01FFDC2B
:1037E0002CFFF00F1712FF198419171A01F62BBFBF
:1037F000F8177A07171DF003FF81F613FFF815FF7E
:10380000DFF8E059174A071718081FFFF801FF9F54
:10381000F81C19101A808429071FFFC007FFFC033A
:10382000176AFE172C03F80717297D1CFF0FFC39B8
:1038300089171139171A3F171C7FF3FF8319172FA8
:1038400001FC07FF787F171B7FFE0419CF1C01FFC7
:10385000C01A1DFE0FFF7F171D07FE7FFEEC4CFFF9
:10386000FFC0171F7F9FFE7FFFE0171C3FFC076014
:103870001950291A1C803FFF2412E0200A03FE3F42
:10388000F803FE03FFFF391719B24917151FF0019E
:10389000FC237FFE133FC01A7F761BE01F17111415
:1038A000FF0FC0127C230FF0130F801A1F10111A84
:1038B000075111153E080B302C1C36220113361C03
:1038C00014080B313D080C0A0801190E1232180AAF
:1038D0001C22202010180C063E0E1233180A384401
:1038E000404030404044380E1234180A10181C145E
:1038F00016123E10100E12351D3E02021E2D2A22F7
:10390000461A36381C02023E55290E12371C3E203C
:1039100010511C0404040E1A38463B444404190E8A
:103920001A392A3C22223E383410097814443F6C5C
:10393000123814103F38126C22441C1009790714F5
:10394000443F28122814383F104902513075295C31
:103950008F3C4DF30E3D8638563D4DF38E3DEA9536
:10396000B23D1904D63DB5A6F93D728A0E3E5227E6
:10397000203E6ADE313E1361433EBDE3543E66663F
:10398000663EA2B4773E6F81843E711B8D3E74B556
:10399000953E3F359E3E0BB5A63EA01AAF3E348005
:1039A000B73E92CBBF3ED509C83EFB3AD03E075F3B
:1039B000D83EF775E03EB072E83E4E62F03EB53755
:1039C000F83E18813F0AD7033F87A7073FE86A0BF5
:1039D0003FBB270F3F73D7123F107A163F910F1A44
:1039E0003F849E1D3FCE19213F8A8E243F2BF62710
:1039F0003F234A2B3F8D972E3FDCD7313F81043543
:103A00003F0B24383F083D3B3FCD3B3E3F05344113
:103A10003F9318443F94F6463F5EBA493F0D714CC0
:103A20003FA01A4F3F17B7513F5839543F0BB55677
:103A30003F151D593F76715B3F2DB25D3FC9E55F74
:103A40003F4A0C62341018643FC217663F47036850
:103A50003FB1E1693FE3A56B3FFB5C6D3F691E6FC2
:103A60003F2E907024180A723F4A7B733F14D07423
:103A7000281812763F3945773F9565783F47727928
:103A80003F516B7A9418127B3FDA1B7C3FE8D97C5C
:103A90003F4D847D3F091B7EA420177E3FF7067FA4
:103AA0003FB7627F3F40A47F3FAED87F3F72F97F30
:103AB0003F000F1C803F5249813FC920803F142E98
:043AC000654200005B
:040000050000026D88
:00000001FF
